:040000000CEF00F011
:10000800FACF01F0FBCF02F0E9CF03F0CCED04F01A
:04001800C9EF06F036
:1006000000000001020203040405060607080809A9
:10061000094E6F772054696D653A004E6F7720540C
:10062000656D703A007472795F4F4B00636F6C6454
:1006300000476F6F6400686F74000000060E1A6E4A
:100640001B0E196E800E1B6EE5EC05F0D6EC06F065
:100650007B0E206E120EE82EFED7202EFCD700D087
:1006600066EC06F02AC00FF0106A000E126E0A0E39
:10067000116E7AEC04F00F50216E300E212621C04D
:1006800017F0C00EBBEC06F02AC00FF0106A000E87
:10069000126E0A0E116E1BEC05F00F50216E300E1B
:1006A000212621C017F0C10EBBEC06F02E0E176EEE
:1006B000C20EBBEC06F02B50010D010EF324F66EBA
:1006C000060EF420F76E0800F5CF21F0300E21263B
:1006D00021C017F0C30EBBEC06F0DF0E176EC40E80
:1006E000BBEC06F0430E176EC50EBBEC06F02C0EED
:1006F000176EC60EBBEC06F02AC00FF0106A000E93
:10070000126E0A0E116E7AEC04F00F50020A1010ED
:10071000D8A42DD02AC00FF0106A000E126E0A0E57
:10072000116E1BEC05F01050800AF36E800EF35C26
:10073000070ED8B40F5CD8B01AD02AC00FF0106AD8
:10074000000E126E0A0E116E1BEC05F01050800A9E
:10075000800F050ED8B40F5CD8A009D0060E1A6E13
:10076000310E196EC70E1B6EE5EC05F033D02AC0B2
:100770000FF0106A000E126E0A0E116E7AEC04F081
:100780001050800A800F020ED8B40F5CD8A01AD087
:100790002AC00FF0106A000E126E0A0E116E1BECCA
:1007A00005F01050800A800F060ED8B40F5CD8A058
:1007B00009D0060E1A6E360E196EC70E1B6EE5ECCA
:1007C00005F008D0060E1A6E2C0E196EC70E1B6EA1
:1007D000E5EC05F01200060E1A6E110E196E800E71
:1007E0001B6EE5EC05F02750800A800F3C0ED8B454
:1007F000265CD8A006D0244A252A000E276E000EBB
:10080000266E2950800A800F3C0ED8B4285CD8A0F0
:1008100006D0264A272A000E296E000E286E24C014
:100820000FF025C010F0000E126E0A0E116E7AEC59
:1008300004F00F50300F176EC00EBBEC06F024C052
:100840000FF025C010F0000E126E0A0E116E1BEC98
:1008500005F00F50300F176EC10EBBEC06F03A0ECC
:10086000176EC20EBBEC06F026C00FF027C010F0CA
:10087000000E126E0A0E116E7AEC04F00F50300F5B
:10088000176EC30EBBEC06F026C00FF027C010F0A9
:10089000000E126E0A0E116E1BEC05F00F50300F99
:1008A000176EC40EBBEC06F03A0E176EC50EBBEC0D
:1008B00006F028C00FF029C010F0000E126E0A0ECC
:1008C000116E7AEC04F00F50300F176EC60EBBECB1
:1008D00006F028C00FF029C010F0000E126E0A0EAC
:1008E000116E1BEC05F00F50300F176EC70EBBECEE
:1008F00006F01200000E146E1250800AF36E800E85
:10090000F35C000ED8B4115CD8B006D0116C121E86
:10091000D8B0122A010E146E1050800AF36E800EA9
:10092000F35C000ED8B40F5CD8B006D00F6C101E6C
:10093000D8B0102A010E141A000E166E000E156E95
:1009400012501110D8B41CD0010E136E04D0D890E0
:1009500011361236132A12AEFAD7D890153616363B
:1009600011500F5C12501058D8A005D011500F5ED6
:100970001250105A1580D89012321132132EEDD722
:100980001450D8B404D0156C161ED8B0162A15C051
:100990000FF016C010F012000600EACF04F0E1CF0D
:1009A00005F0E2CF06F0D9CF07F0DACF08F0F3CFA9
:1009B00009F0F4CF0AF0F6CF0BF0F7CF0CF0F8CF38
:1009C0000DF0F5CF0EF09DB09EA010D02350070A79
:1009D000D00ED8B42218D8A409D0000E236E000E71
:1009E000226E284A292A9E909D9003D09D90224AEB
:1009F000232A0B0ECF6EDC0ECE6E9D800EC0F5FF4F
:100A00000DC0F8FF0CC0F7FF0BC0F6FF0AC0F4FFE3
:100A100009C0F3FF08C0DAFF07C0D9FF06C0E2FF34
:100A200005C0E1FF04C0EAFF03C0E9FF02C0FBFF0D
:100A300001C0FAFF1100000E146E1050800AF36E10
:100A4000800EF35C000ED8B40F5CD8B006D00F6CEB
:100A5000101ED8B0102A010E146E1250800AF36EC8
:100A6000800EF35C000ED8B4115CD8B004D0116CC9
:100A7000121ED8B0122A12501110D8B418D0010E7C
:100A8000136E04D0D89011361236132A12AEFAD74C
:100A900011500F5C12501058D8A004D011500F5EA6
:100AA0001250105AD89012321132132EF1D714501E
:100AB000D8B404D00F6C101ED8B0102A0FC00FF09D
:100AC00010C010F012000F0EC16E9268000E956EED
:100AD000000E936EAAEC05F0FD0ECD6E0B0ECF6EE0
:100AE000DC0ECE6E9E909F809D80D08EF28E94689C
:100AF000EBEC03F028C00FF029C010F0000E126ECE
:100B0000140E116E1BEC05F010500F10D8A40CD071
:100B100000EC07F01EEC03F0000E106E020E0F6EDC
:100B200041EC06F000EC07F028500A0A2910D8A47E
:100B3000DFD79D90000E946E8268946882B008D0D2
:100B4000060E1A6E250E196EC00E1B6EE5EC05F032
:100B50009D80CED7C30E106ECD0EE82EFED7102E80
:100B6000FCD700F0380EEEEC06F0410E106EEE0EE3
:100B7000E82EFED7102EFCD700D0380EEEEC06F093
:100B8000410E106EEE0EE82EFED7102EFCD700D0D0
:100B9000380EEEEC06F0F7EC06F0380EEEEC06F050
:100BA000F7EC06F0080EEEEC06F0F7EC06F0010E9E
:100BB000EEEC06F0F7EC06F0060EEEEC06F0F7ECC5
:100BC00006F00C0EEEEC06F0120019C0F6FF1AC08B
:100BD000F7FF0800F5CF17F01B50BBEC06F0000E36
:100BE0001F6E010E1E6E14D0F7EC06F019C01CF03B
:100BF0001AC01DF01E501C261F501D221CC0F6FFDF
:100C00001DC0F7FF0800F550E3EC06F01E4A1F2A4E
:100C100019C01CF01AC01DF01E501C261F501D22AA
:100C20001CC0F6FF1DC0F7FF0800F5500009D8B43E
:100C30001200DAD7000E0F6E000E116E000E106E4D
:100C40001150800A800F080ED8B4105CD8B017D0AD
:100C5000D8900F329298809800F000F000F000F0E9
:100C600000F000F0928800F000F000F000F080B892
:100C70000F8E150EE82EFED7104A112AE1D70F501D
:100C800012001050800AF36E800EF35C010ED8B48F
:100C90000F5CD8A01AD0000E136E000E126E135007
:100CA000800A800F0A0ED8B4125CD8B00AD0820E27
:100CB000116EDE0EE82EFED7112EFCD7124A132A33
:100CC000EED70F06D8A01006DCD71200A4EC06F071
:100CD000126E1204D8A418D0CC0E85EC06F0BE0E0D
:100CE00085EC06F01AEC06F0146E1AEC06F0136EA2
:100CF00014500F0B2B6E13C012F0123AF00E121696
:100D000014380F0B12102A6E1200106E000E116EA6
:100D100017D01050010B0F6E9298809800F000F0E1
:100D200000F000F000F00F04D8B49288150EE82E01
:100D3000FED7928800F000F0D8901030106E112A83
:100D4000070E1164E6D7120092988098A70EE82E3D
:100D5000FED700D09288170EE82EFED700F080A8AC
:100D600002D0000E01D0010E0F6E8F0EE82EFED7BE
:100D700000F00F501200186EF7EC06F01850EEEC71
:100D800006F0F7EC06F01750E3EC06F0F7EC06F08F
:100D9000120000EE22F00A0EEE6AE806FDE1000EF7
:100DA000F86E060EF76E000163EF05F0A4EC06F096
:100DB000126E1204D8A406D0CC0E85EC06F0440EB8
:100DC00085EC06F012000F6EF7EC06F0818A819830
:100DD0000FC083FF818600F0819612000F6E819A0A
:100DE00081980FC083FF818600F081961200958E56
:100DF000819A8188818683BEFED78196959E120056
:100E0000F7EC06F0010EEEEC06F0F7EC06F012003F
:020000040020DA
:08000000FFFFFFFFFFFFFFFF00
:020000040030CA
:0E000000FF071F1FFF8385FF0FC00FE00F409B
:00000001FF
